:020000040800F2
:10000000100C04247503000849E8000829A300081F
:1000100079E3000811390008D10801080000000048
:1000200000000000000000000000000011F00008C7
:10003000114900080000000029EA000859F20008F0
:100040008F0300088F0300088F0300088F03000848
:100050008F0300088F0300088F0300088F03000838
:100060008F0300088F0300088F0300088F03000828
:10007000C94200088F0300088F0300088F0300089F
:100080008F0300088F0300088F0300088F03000808
:100090008F0300088F0300088F0300088F030008F8
:1000A0008F0300088F0300088F0300088F030008E8
:1000B0008F0300088F0300088F0300088F030008D8
:1000C0008F0300088F0300088F0300088F030008C8
:1000D0008F0300088F0300088F0300088F030008B8
:1000E0008F0300088F0300080000000059F4000887
:1000F0008F0300088F0300088F0300088F03000898
:100100008F0300088F0300088F0300088F03000887
:100110008F0300088F0300088F03000831F40008E4
:10012000D94200088F0300088F0300088F030008DE
:100130008F0300088F0300088F0300088F03000857
:1001400000000000000000000000000000000000AF
:100150008F0300088F0300088F0300088F03000837
:100160008F0300088F0300088F0300088F03000827
:100170008F0300088F0300088F03000800000000B1
:100180008F0300088F0300088F0300088F03000807
:100190008F0300088F0300088F0300088F030008F7
:1001A0008F0300088F0300088F0300088F030008E7
:1001B0008F0300088F0300088F0300088F030008D7
:1001C0008F0300088F0300088F0300088F030008C7
:1001D0008F0300088F0300088F0300088F030008B7
:1001E0008F0300088F0300088F0300088F030008A7
:1001F0008F0300088F0300088F0300088F03000897
:100200008F0300088F0300088F0300088F03000886
:100210008F03000801F4000811F400088F030008A0
:100220008F0300088F0300088F0300080000000000
:100230008F0300088F030008000000008F030008F0
:100240008F0300088F0300088F0300088F03000846
:100250008F0300088F0300088F0300088F03000836
:100260008F0300088F0300088F0300088F03000826
:100270008F0300088F0300088F03000800000000B0
:100280008F0300088F0300088F03000800000000A0
:10029000000000008F03000800F002F800F05AF898
:1002A0000AA090E8000C82448344AAF10107DA45D1
:1002B00001D100F04FF8AFF2090EBAE80F0013F0C9
:1002C000010F18BFFB1A43F001031847D045010086
:1002D000F0450100103A24BF78C878C1FAD8520717
:1002E00024BF30C830C144BF04680C6070470000B0
:1002F0000023002400250026103A28BF78C1FBD82F
:10030000520728BF30C148BF0B607047662912F002
:100310008480642901F07086632902F09283732936
:1003200002F09783002070471FB512F069F89DE82E
:10033000030002F08FF802F095FB0400002000217A
:1003400011F052FFE06002F093FD1FBD10B502F006
:10035000F8FD10BD02F030FE1146FFF7E5FF10F08A
:100360001FFE02F087FF03B4FFF7F0FF03BC02F0AB
:10037000BFFF00000948804709480047FEE7FEE745
:10038000FEE7FEE7FEE7FEE7FEE7FEE7FEE7FEE745
:1003900004480549054A064B7047000031F3000840
:1003A00099020008100C0024100C0424100C0224E4
:1003B000100C022470B504463B480068C66894B926
:1003C0003A4839490968C860C0683749096888608F
:1003D000364800783449096888743448417832488E
:1003E0000068C1740EE030480068C4602E49E068BF
:1003F0000968886020782C490968887461782A48DF
:100400000068C17428480068C57C274800684178A6
:10041000681E0144244800684079814216DD224864
:1004200000684178681E0844C1B21F4800684171E5
:100430001D48006841791C480068C078814205DD8C
:1004400019480068C178184800684171164800686A
:100450000079154909688978884203DD12480068E7
:10046000807802E01048006800790F4909688871B7
:100470000D48006841790C480068C17100F05EFCCD
:10048000304670BD10B500F0E6FC07480068C06853
:1004900010BD0146052900DB042101EB4100044A9F
:1004A00002EBC000C068704700000024F82E01086D
:1004B000380000242DE9F04104460D4600F0CBFC45
:1004C0000D480068C068007810FB04F0C7B20A4805
:1004D0000068C068407810FB05F0C6B206480068A6
:1004E000C0684078401E3044C6B23146384600F0FD
:1004F00019FFBDE8F0810000000000242DE9FE4353
:1005000004460027A06802900298007810B90020E5
:10051000BDE8FE83FE480068007C10F0080F13D091
:1005200000BF02980578092D02D00D2D00D003E000
:100530000298401C0290F4E700BFF548006800787C
:10054000F3490968087113E0F1480068007C00F085
:100550000C00042806D0EE480068007C00F0300053
:10056000202805D1EA4800680078E949096808713F
:10057000029820600298606000200190A0814FF0F6
:10058000010800BF02980090029805780DB10A2D6D
:1005900000D1A2E00D2D12D1DD480068007C10F0E2
:1005A0000C0F01D020252BE0B8F1000F06D0D84861
:1005B00000680078D6490968087184E08DE0092D4B
:1005C0001BD1D3480068007C10F00C0F01D020250F
:1005D00016E060680190A789CD4909680979227BF6
:1005E0001144C8B200F087FDC94909680979401A69
:1005F00086B2A089301A86B209E0202D03D100BF4F
:1006000060680190A789284600F017FF0646C04899
:1006100000688078BE4909680978401A401CB042D9
:100620000EDCBB4800688078B94909680978401A2F
:10063000401CA0810298401C0290029800904CE05F
:10064000B3480068008A10F4007F15D0A089B04933
:10065000096809790144AE480068007C00F00C008C
:10066000082801D1701E00E000200844A84909684C
:100670008978884223DD30E0A0893044401EA449B7
:10068000096809790844A24909688978884216DD11
:10069000019898B19E480068007C00F0C000402896
:1006A0000CD101986060A781019802900298401CCB
:1006B00002900298401C0290029800900DE0A089E0
:1006C0003044A08100BF029860600298401C0290F4
:1006D000029800904FF0000854E700BF0098A06017
:1006E0002068007808B9002012E7A068007830B9C7
:1006F00087480068007C00F00C000C280ED1606870
:100700000578202D01D0092D08D1D4E900108842A8
:1007100004D0019810B101986060A78100BFA06863
:1007200005787B480068007C10F0800F00D107E05E
:100730000DB10A2D00D103E0A068401CA060EEE7D7
:1007400000BF0DB90120E3E60D2D01D10220DFE647
:100750000A2D01D0092D02D1A068401CA060032001
:10076000D6E62DE9F84F0546A86808B9BDE8F88F28
:1007700000F084FC66490968C86800F0EFFB044695
:1007800063480068C078624909684978401A401C8B
:10079000C7B25F480068008A10F4004F07D05C4879
:1007A0000068007C10F0010F01D1012000E0002062
:1007B00081465848007810B1A74200DAD6E754487D
:1007C0000068007C00F03000302806D050480068F7
:1007D000007C00F03000202870D100264C480068D2
:1007E00090F804A0A868009000BF2846FFF786FE96
:1007F0008046012805DCB8F1010F01D1701C86B2DA
:100800000BE0B8F1030F01D1701C86B240480068BC
:1008100000783F4909680871E7E700BF0098A860C1
:100820003B48006880F804A039480068007C00F06C
:10083000300030281AD1601E3549096849780844CB
:10084000C1B233480068417104FB06F0B84249DA8E
:1008500004FB167000EBD0714A102D4909684979E4
:100860001144CAB22A4909684A713BE004FB06F008
:10087000B8422DDD781E90FBF4F104FB11002449F1
:10088000096849780844C1B221480068417121488B
:10089000007860B197FBF4F0301A86B21C4800680B
:1008A00040792044C1B21A480068417105E0381906
:1008B000401E90FBF4F0301A86B203E013E02846A5
:1008C000FFF71CFE301EA6F101018EB2F7DC09E035
:1008D0000F480068C178701E04FB1010C1B20C48AC
:1008E000006841710FE00A480068007C00F03000A9
:1008F000102808D10648006840782044401EC1B244
:100900000348006841712846FFF7F8FD804603E080
:100910000000002404000024D7480068008A10F476
:10092000806F22D0D44800684079A0421DDBB9F125
:10093000000F1AD1D0480068007C10F0010F02D0DF
:100940004FF6FF7000E00020CB4E009036687679BD
:10095000361BF3B2C84E3668B278C74E3668717827
:10096000C54E3668307800F0BBFDB8F1000F76D088
:1009700000BFC1480068007C00F00C000C2823D1A7
:10098000BD4909688978BC4A12681278891A491CDD
:10099000AA89914203DCB8490968097810E0B64990
:1009A00009688978B44A12681278891A491CAA8998
:1009B000881A00EBD071B04A1268127802EB61011C
:1009C000AD4A126811711EE0AB480068007C00F06F
:1009D0000C00082817D1A84800688078A649096843
:1009E0000978401A401CA989884203DCA2480068A3
:1009F000007805E0A04800688078401CA989401A6A
:100A00009D49096808719C480068008A10F4805F5D
:100A10003BD099480068007997490968097888426D
:100A200033DDB9F1000F30D193480068007C10F03D
:100A3000010F02D04FF6FF7000E000208E4E0090B4
:100A400036687679DFF830C2DCF800C09CF801C067
:100A5000A444664504DA884E3668767807E07FE07D
:100A6000854E366896F805C0661EACEB0606F1B2F8
:100A7000814E36687379804E36683679761EF2B2CA
:100A80007D4E3668307800F02BFD00BF2868067870
:100A900079480068007C10F00C0F04D00D2E01D0B6
:100AA000092E00D12026304600F038FBD5E90001A0
:100AB000884200D103E02868401C2860E6E700BFB8
:100AC0006D480068008A10F4005F38D06A480068FA
:100AD0000079694909688978884230DCB9F1000FEA
:100AE0002DD165480068007C10F0010F02D04FF650
:100AF000FF7000E00020604E009036687679DFF8E5
:100B000078C1DCF800C09CF801C0A444664503DA53
:100B1000594E3668767806E0574E366896F805C026
:100B2000661EACEB0606F1B2534E36687379524E30
:100B30003668B278504E3668307900F0D1FCB8F1A2
:100B4000030F04D1204600F029FA00B107E028463F
:100B5000FFF7D4FC8046B8F1000F7FF40AAF53E0F2
:100B600045480068008A10F4805F05D1424800685B
:100B7000008A10F4005F47D0B9F1000F44D13E481D
:100B80000068007C10F0010F02D04FF6FF7000E00B
:100B90000020394E009036687679DFF8DCC0DCF84A
:100BA00000C09CF801C0A444664503DA324E3668A2
:100BB000767806E0304E366896F805C0661EACEBD7
:100BC0000606F1B22C4E366873792B4E3668368A9B
:100BD00016F4005F03D0284E3668B67803E0264E40
:100BE00036683679761EF2B2234E3668368A16F4A7
:100BF000805F03D0204E3668367802E01E4E36689D
:100C00003679304600F06CFC1B480068008A10F40E
:100C1000006F25D018480068417917480068C078EF
:100C200081421DDAB9F1000F1AD113480068007C27
:100C300010F0010F02D04FF6FF7000E000200E4EC2
:100C400000903668F3780C4E3668B2780A4E3668F3
:100C50007679761CF1B2084E3668307800F040FCA8
:100C600000F01BFA00BF81E51FB5044602946846F8
:100C7000FFF777FD1FBD00000000002438B50020FD
:100C80002C49087000F0E7F82B480068007C10F051
:100C9000010F02D04FF6FF7000E00020264C0090BC
:100CA0002468E378244C2468A278234C2468617873
:100CB000214C2468207800F013FC10F0F9F81E484D
:100CC000006800781C49096808711B480068407872
:100CD00019490968C96849780844401EC1B21648D4
:100CE000006841711448006800797F2803DD7F2087
:100CF0001149096808711048006841790E48006878
:100D0000C078814205DD0C480068C1780A48006857
:100D1000417100F013F80848006800780649096836
:100D2000887105480068417803480068C17100F087
:100D300005F838BD51040024000000245D4A126803
:100D400014325C4B1B68D21A182392FBF3F2D1B217
:100D50000022584B1B681A7500200BE0554A126898
:100D6000127D544B1B681B5C1A44524B1B681A754E
:100D7000421CD0B28842F1DB704710B50446002017
:100D80004C49096808704B49096848707F204949F7
:100D9000096888701F2147480068C17000204549D4
:100DA00009688871002143480068C17100204149E9
:100DB00009680871012C1ADC07213E48006841715E
:100DC00000203C49096808823B483A490968C860E4
:100DD000C06838490968886037480078354909682B
:100DE00088743548417833480068C1740EE0314852
:100DF0000068C06810B93048407802E02D480068AB
:100E0000C07C401EC1B22B4800684171FFF796FFBD
:100E100010BD10B500240BE004EB4400274901EBA2
:100E2000C000244908600020FFF7A7FF601CC4B27F
:100E3000052CF1DB0020214981F8780008461D4986
:100E4000086010BD10B50FF09BFE040001D1FFF744
:100E5000E0FF204610BD10B51648006808B9FFF73E
:100E6000F1FF164890F8780005280CDB04201349A0
:100E700081F87800084690F8780000EB400001EB1C
:100E8000C0000C4908600B480068C06828B9FFF72B
:100E9000D9FF0848006800B910BD06480068047D05
:100EA000FFF74CFF03480068007DA04200D000BF60
:100EB00000BFF1E700000024F82E010838000024EC
:100EC00070B50446FFF7C7FF04480068058A034869
:100ED00000680482FFF732FF284670BD000000243E
:100EE00010B5FFF7B8FF00240BE004EB44001949EC
:100EF00001EBC00018490968884200D103E0601C7A
:100F0000C4B2052CF1DB00BF052C01DA204610BD70
:100F10000020FCE7052807DA00EB40010D4A02EB50
:100F2000C1010D4A116003E00A4960310A4A1160AB
:100F3000704770B50446FFF7D3FF0546052C00DB6C
:100F4000042404EB4400034901EBC000024908609B
:100F5000284670BD3800002400000024014611B965
:100F60000B48407870474878FCE710B5FFF773FFEF
:100F700008480068C07C10BD0146052900DB04213B
:100F800001EB4100044A02EBC000C07C7047000046
:100F9000F82E010800000024380000247CB5044627
:100FA0002CB9DD490968C868FFF7D8FF0446DA485C
:100FB000006840790119D8480068C07881420ADC8D
:100FC0000FF076FFD448006840792044C1B2D2487F
:100FD000006841714AE0D0480068007C10F0020FC0
:100FE00015D0CE48007838B9CB4800684179CA4856
:100FF0000068C078814201DB01207CBDC6480068E2
:1010000040792044C1B2C448006841712EE0C34811
:10101000007808B125460EE0BF4800684079011904
:10102000BD480068C078081AC5B2BB480068C178DE
:10103000B94800684171B8480068007C10F0010FA1
:1010400002D04FF6FF7000E00020B34ECDE9005013
:101050003668F378B04E3668B278AF4E366871783D
:10106000AD4E3668307800F017FB00BFAA48006824
:101070000078A949096808710020BEE710B5FFF79C
:10108000EAFE0020A6490870A3480068008A0121F2
:1010900021EA1020A149087010BD10B59E480068D3
:1010A00000799D4909688978884205DD9A48006879
:1010B000807899490968087197480068417996488D
:1010C0000068C078814205DD93480068C178924885
:1010D000006841719048006800798F4909688871FB
:1010E0008D48006841798C480068C1710FF0E0FEBE
:1010F000FFF724FE10BD884909680978411AC8B273
:10110000152190FBF1F1491CC1EBC10101EB41013B
:10111000814A126812781144C8B27047FEB506467B
:101120000A2E01D00D2E01D10020FEBD092E3BD18B
:10113000794909680879FFF7DEFF044676490968AE
:10114000097888422FD074490968C868FFF706FFFC
:10115000054671480068007C10F0010F02D04FF680
:10116000FF7000E000206C4A0090126852796A4FCC
:101170003F687F782F44BA4203DA674A1268527890
:1011800004E0654A126857796A1EBA1AD1B2624AF7
:1011900012685379604A12681079224600F0A0F96B
:1011A0005D48006804718AE05B490968C868FFF718
:1011B000D5FE07465848006800795749096889787C
:1011C000884208DD544800688078401C524909680C
:1011D00008710020A9E75048006882684E480068FE
:1011E000C168304600F0DEF805460DB900209CE7E6
:1011F0002C7849480068008A10F4007F0BD14648DB
:10120000006800792044401E434909688978884273
:1012100001DD012089E740480068C06840883E49F8
:10122000096849793C4A12685278891AB94201DB47
:10123000002108E0384909684979374A126852782C
:10124000891A491C791AC9B2DFF8CCC0CDE900511E
:101250000290DCF800C09CF80330DFF8BCC0DCF87A
:1012600000C09CF80220DFF8B0C0DCF800C09CF899
:1012700005C00CF1010CACEB070C0CF0FF01DFF822
:1012800098C0DCF800C09CF8040000F0DBFB2248AA
:10129000006800792044204909688978884206DD81
:1012A0001D48006880781C490968087106E01A48E2
:1012B00000680079204418490968087100BF0020BF
:1012C00033E710B50446FFF7D9FE0A2C02D00D2CE7
:1012D0000BD103E00020FFF761FE19E00E48006823
:1012E00000780D490968087112E02046FFF716FFE3
:1012F00068B109480068007C10F0800F07D1002019
:10130000FFF74CFE00B103E02046FFF707FF00BFE8
:1013100000BFFFF7C2FE10BD00000024040000243F
:101320005104002470B504460D46FFF794FD1C4897
:10133000006800782044C4B2194800684078284406
:10134000C5B2174800680078A04202DD1448006862
:101350000478134800688078A04202DA10480068D8
:1013600084780F4800684078A84202DD0C48006885
:1013700045780B480068C078A84202DA084800683F
:10138000C57807480068847105480068C57104483D
:1013900000680471024800684571FFF7CFFC70BD1A
:1013A000000000242DE9F04703460D46002A36D000
:1013B00002F1020C107810B90020BDE8F08700BFE0
:1013C00016784FF0000800BF711008EB010000EB29
:1013D000400000EB0C04207898420ADC60789842C8
:1013E00007DBA07894F800A0A3EB0A0A5044C3B22C
:1013F0001BE061B12078984201DD0E4605E008EB64
:10140000010000F0FF08701AC6B206B1DCE75078A0
:10141000984201D10020D0E7537800BFD0E7288957
:10142000984201DA0020C8E700BF6888801C87B2B4
:10143000D5F8049007FB0390BFE730B505460D488B
:10144000006808B9082030BD0A480068C06808B9BB
:101450000820F8E707480068826806480068C16805
:101460002846FFF79FFF04460CB90020EBE72078E1
:10147000E9E700000000002470B504461CB1A4F5A3
:101480007F40FF3814D100250FE02846691CCDB2FB
:1014900078490C542046E11704EB1161C1F307238E
:1014A00029466A1CD5B2734A5354082DEDD316E071
:1014B000002512E0E2B229466E480FF0D5FA681C0A
:1014C000C5B22646E01704EB1060C0F30722294698
:1014D00068480FF0C9FA681CC5B2082DEAD370BD80
:1014E0002DE9FC5F07460C4690461D4600206249E8
:1014F00008707F2F00DD7F271F2C00DD1F24A542F1
:1015000000DA25461F2D00DD1F25B84500DAB84654
:10151000B8F17F0F01DD4FF07F0838465749097851
:10152000574A1278914204DA5449087054490870B5
:101530000CE053490978884202DA5149087005E005
:101540004E490978884201DD4C49087020464D49D2
:1015500009784D4A1278914204DA4A4908704A499A
:1015600008700CE048490978884202DA4649087058
:1015700005E044490978884201DD42490870404647
:101580003E4909783E4A1278914204DA3B49087094
:101590003B4908700CE03A490978884202DA384938
:1015A000087005E035490978884201DD3349087043
:1015B000284634490978344A1278914204DA31498C
:1015C0000870314908700CE02F490978884202DA26
:1015D0002D49087005E02B490978884201DD294929
:1015E00008700C98FFF748FF04F00700274911F82E
:1015F000009005F00700264911F800B02846E917C9
:1016000005EB5171CD102046E11704EB5171CC1060
:1016100026462BE0AE4201D109EA0B0907EBC610C2
:101620000090BA461CE00AF007001249085C0190DD
:10163000B9F1FF0F09D017490098085C20EA0900AA
:10164000019901EA090108430190DDE90001421C0A
:1016500092B200920F4A11540AF1010000F0FF0A01
:10166000C245E0DD4FF0FF09701CC6B2AE42D1DDCD
:10167000BDE8FC9F4004002451040024620A0024B9
:10168000600A0024630A0024610A00240842010859
:10169000104201083E0200242DE9FF4F89B00C469C
:1016A0001E460020DD49087009987F2801DD7F2053
:1016B00009901F2C00DD1F24A64200DA26461F2EAB
:1016C00000DD1F2609990B98884201DA09980B90D2
:1016D0000B987F2801DD7F200B900998D04909786D
:1016E000D04A1278914204DACD490870CD49087089
:1016F0000CE0CC490978884202DACA49087005E052
:10170000C7490978884201DDC54908702046C649A5
:101710000978C64A1278914204DAC3490870C3496D
:1017200008700CE0C1490978884202DABF490870A4
:1017300005E0BD490978884201DDBB4908700B9876
:10174000B7490978B74A1278914204DAB449087067
:10175000B44908700CE0B3490978884202DAB1490B
:10176000087005E0AE490978884201DDAC4908708F
:101770003046AD490978AD4A1278914204DAAA4957
:101780000870AA4908700CE0A8490978884202DA72
:10179000A649087005E0A4490978884201DDA249FC
:1017A0000870311B169881420ADA17983346009068
:1017B00021460B9A0998FFF793FE0DB0BDE8F08F14
:1017C0001698301AC0B2089004F007009849085CD7
:1017D000049006F007009749085C0390089800F011
:1017E0000700085C02901698204400F0070004F0FF
:1017F0000701A0EB010916996018C11700EB5171A0
:101800004FEAE1083046F11706EB5171CE10204641
:10181000E11704EB5171CC100898C11700EB51711E
:10182000C91008912746F4E0B74203D1DDE903105F
:101830000840049009980790DEE007990B98401A39
:10184000C0B20590072801DD07200590079800EB3E
:10185000C810794900EB010B05980690002500BFE0
:101860001BF8012B2846691CCDB274490A5406980E
:10187000411EC9B206910028F2D1B9F1000F01DD75
:10188000B04504D1B9F1000F21DAA0451FD0B9F15C
:10189000000F02DD08F1010001E0A8F1010080B2B3
:1018A000079901EBC010644900EB010B0598069005
:1018B000002500BF1BF8012B2846691CCDB26049EA
:1018C0000A540698411EC9B206910028F2D1059823
:1018D0000690002500BF0898874243DCB9F1000F4D
:1018E0002BD0B9F1000F0BDD544810F805A0B0451E
:1018F00003D05348405D4AEA002A4AFA09FA1FE039
:10190000A74201D1002001E04D48405D82464B488E
:10191000405D4AEA002AB9F1000001DB014600E01F
:1019200041420AFA01F11FFA81FA50464FEAEA7180
:101930000AEB11614FEA212A02E0404810F805A0A5
:10194000089887420AD102990AEA01001799C9B298
:10195000029A914308433949485506E0374901F84E
:1019600005A002E0354917984855681CC5B206988D
:10197000411EC9B206910028ADD10498FF281ED09F
:10198000079800EBC7102C4900EB010B0598069057
:10199000002500BF9BF80000049988432749495D52
:1019A000049A11400843254948550BF1010B681C66
:1019B000C5B20698411EC9B206910028EAD107981F
:1019C00000EBC7101C4900EB010B059806900025A1
:1019D00000BF2846691CCDB21849085C0BF8010B02
:1019E0000698411EC9B206910028F2D10598401C04
:1019F00007990844C0B207900B99079888427FF76F
:101A00001CAFFF200490781CC7B208F1010000F061
:101A1000FF08B7427FF708AF00BFCEE651040024AD
:101A2000620A0024600A0024630A0024610A002478
:101A300008420108104201083E020024400400242C
:101A4000480400242DE9FF4F85B0884691469A4608
:101A5000DDE912B69BF800509BF8014004B115B9BE
:101A600009B0BDE8F08F0BF1020003902448006834
:101A7000007C10F0010F01D0802000E000200490D5
:101A8000149830B9E81DC11700EB5171C1F3C707B5
:101A900003E0149890FBF4F0C7B219480068008A7C
:101AA00010F4004F03D0049840F0400004904EB171
:101AB00008EB060000F0FF08A01B84B2039817FB98
:101AC0000600039005982844401E85B204EB0800E8
:101AD000401E84B24D4500DD4D46544500DD544660
:101AE000002008490870DDE90301E3B2EAB2CDE95C
:101AF000017100904146059800F006F800BFAFE77D
:101B000000000024510400242DE9F04F86B0064661
:101B1000DDF844C00F9D0DB1109D15B906B0BDE8AC
:101B2000F08F7F2E00DD7F261F2900DD1F218B42D5
:101B300000DA0B461F2B00DD1F23B24200DA3246CB
:101B40007F2A00DD7F22109D012D01DA01251095ED
:101B500035469B4F3F78DFF86C8298F80080474508
:101B600004DA974F3D70974F3D700CE0954F3F78EA
:101B7000BD4202DA934F3D7005E0914F3F78BD4280
:101B800001DD8F4F3D700D468F4F3F78DFF83C826F
:101B900098F80080474504DA8B4F3D708B4F3D70BD
:101BA0000CE08A4F3F78BD4202DA884F3D7005E075
:101BB000854F3F78BD4201DD834F3D701546804F14
:101BC0003F78DFF8008298F80080474504DA7C4FC0
:101BD0003D707C4F3D700CE07A4F3F78BD4202DA99
:101BE000784F3D7005E0764F3F78BD4201DD744F80
:101BF0003D701D46744F3F78DFF8D08198F8008023
:101C0000474504DA704F3D70704F3D700CE06F4FE8
:101C10003F78BD4202DA6D4F3D7005E06A4F3F7874
:101C2000BD4201DD684F3D70CCF3801504950CF08A
:101C3000800C01F00705664F785D00250595BAE038
:101C4000CF10B7EBE30F06D103F00707DFF884915D
:101C500019F80770384000270397B8463546A0E0CA
:101C60000F464FEAE17901EB59794FEAE90905EBB3
:101C7000C91480270197571BFFB20297072F01DD78
:101C80000727029700BF01F0070ADFF84CB11BF8E5
:101C90000A900027DDF81480009100BFDDF840B005
:101CA000DDF80CA018FB0BABDDF83CA01AF80BA07C
:101CB000DDF804B01AEA0B0F01D047EA090708F172
:101CC000010A0AF0FF084FEA496A4FEA1A6A5FEA16
:101CD0000A0909D0DDF800A00AF1010A0AF0FF0A9A
:101CE000CDF800A09A45D9DDDDF810A0BAF1000FBB
:101CF0001ED0BCF1000F0ED0DFF8E0A01AF804A04F
:101D000087F0FF0B6BEA000B0AEA0B0ADFF8CCB096
:101D10000BF804A021E0DFF8C4A01AF804A007EA39
:101D2000000B4AEA0B0ADFF8B4B00BF804A014E089
:101D3000BCF1000F01D087F0FF07FF2809D0DFF8C2
:101D40009CA01AF804A02AEA000A07EA000B4AEA53
:101D50000B07DFF888A00AF8047004F1010A1FFAE3
:101D60008AF4DDF804A04FEA6A0ACDF804A0029FC5
:101D7000A7F1010909F0FF09CDF80890002F82D1E1
:101D8000571BFFB20297072F03DD05F10807FDB2CD
:101D900003E0029F7F1C2F44FDB2039F7F1CFFB214
:101DA000039795427FF75CAFCDF81480FF2021F0B8
:101DB00007050835E9B299427FF742AF00BFADE6AB
:101DC000620A0024600A0024630A0024610A0024D5
:101DD0000842010810420108E54001083E020024C3
:101DE00070B5064600F01AFB056806F10B0020F0FE
:101DF0000704B4429CBF002070BD2B466A68BAB18C
:101E00001068A04210D304F1080188423CBF50681A
:101E1000586007D35168101941601168091B0160AF
:101E200058601460101D70BD13465268002AE7D137
:101E30002146284600F0FAFA0028DED170BD53EAA8
:101E4000020C00F069802DE9F04B4FF00006002BEA
:101E50001FBFB3FA83F503FA05F424FA05F65E40D2
:101E600012BF1643B2FA82F502FA05F4C5F1200555
:101E70001EBF22FA05FC44EA0C04203556EA044C45
:101E80004FEA144418BF641C4FF000084FF00009DB
:101E9000904271EB030C39D3002919BFB1FA81F7D5
:101EA00001FA07F6B0FA80F700FA07F6C7F1200743
:101EB0001EBF20FA07FC46EA0C062037B6FBF4FCEE
:101EC000A7EB0507103F07F01F0BCBF120062CFAFC
:101ED00006F60CFA0BFB44BFB3460026202FA4BF26
:101EE0005E464FF0000B5BEA060C08BF4FF0010B9B
:101EF00019EB0B0948EB0608ABFB027C06FB02CC96
:101F00000BFB03CCC01B71EB0C01C1E70B46024677
:101F100041464846BDE8F08B13B5084318BF4FF063
:101F2000FF300146AFF30080BDE81C407047000061
:101F30000FB41CB5074B06AA7B4469460090059870
:101F400000F05DFD0020694600F06CFD1CBC5DF8F2
:101F500014FB0000E90A000070B5044685690068BA
:101F6000C10601D5302600E02026C00707D070BD8D
:101F7000D4E9012130469047206A401C20626D1E42
:101F8000F6D570BD70B5044685690078C00707D1E5
:101F900070BDD4E9012120209047206A401C2062B6
:101FA0006D1EF6D570BD70B50C460546012A05D0EC
:101FB0002878800600D5EA69002302E0012305E0C5
:101FC0005B1C934202D2E05C0028F9D1A869E618B4
:101FD000C01AA861286A184428622846FFF7BCFF87
:101FE00004E0D5E9012114F8010B9047B442F8D37D
:101FF0002846FFF7C7FF70BD2DE9F04106460024D3
:1020000010687529314616A510D0AFF3008000285E
:1020100002DA404213A507E031688A0701D512A50C
:1020200002E0490704D511A5012401E0AFF30080C7
:1020300000210A2206F1240709E0B0FBF2FCB0FB04
:10204000F2F302FB1C00303078541846491C00287B
:10205000F3D123462A463046BDE8F04100F062BA8B
:10206000000000002D0000002B00000020000000F8
:102070002DE9F05F894604464FF0000ADFF824B1ED
:10208000FB44C0F820A02046E168884700287DD0A6
:10209000252806D0D4E901219047206A401C2062FF
:1020A000F1E700255F462046E1688847202806467C
:1020B00007DB312E05D2B81910F8200C08B1054302
:1020C000F1E7A80701D525F00405C4F81CA00027F6
:1020D000C4F818A02A2E09D0304610F065F838B39D
:1020E00004EB8708303EC8F8186019E059F8041B63
:1020F000204604EB87029161E1688847012F06467C
:1021000018D1E069002820DA25F020051DE0D8F874
:10211000180000EB800006EB40003038C8F81800CB
:102120002046E1688847064610F03EF80028EED1C8
:10213000012F0AD02E2E08D12046E16888477F1C47
:102140000646022F45F02005C4DBA069002803DA0B
:10215000404245F00105A061E80701D025F01005D7
:10216000A6B1A6F14100192802D8203645F4006531
:102170004A463146204625604D46FEF7C7F860B115
:10218000012807D0ED1D25F0070000E007E000F171
:10219000080978E705F1040975E730467AE7206A0F
:1021A000BDE8F09F9A03010010B5044603E010F06B
:1021B0000EF8401C09D014F8010B05490028F6D18F
:1021C000BDE810400A2010F002B84FF0FF3010BDFB
:1021D0000801002410B5431C02E010F8011B71B186
:1021E0008107FAD14FF0013202C88C1A8C4314EAED
:1021F000C211F9D0C01A0A0603D0C01E10BDC01A01
:1022000010BD0A0401D0801E10BD0902FCD0401E82
:1022100010BD032A40F2308010F0030C00F015804E
:1022200011F8013BBCF1020F624498BF11F801CBD9
:1022300000F8013B38BF11F8013BA2F1040298BF3E
:1022400000F801CB38BF00F8013B11F0030300F0A8
:102250002580083AC0F0088051F8043B083A51F84C
:1022600004CBA0E80810F5E7121D5CBF51F8043B51
:1022700040F8043BAFF30080D20724BF11F8013BC4
:1022800011F801CB48BF11F8012B24BF00F8013B26
:1022900000F801CB48BF00F8012B704710B5203A79
:1022A000C0F00B80B1E81850A0E81850B1E8185001
:1022B000A0E81850203ABFF4F5AF5FEA027C24BFD3
:1022C000B1E81850A0E8185044BF18C918C0BDE8BC
:1022D00010405FEA827C24BF51F8043B40F8043B85
:1022E00008BF7047D20728BF31F8023B48BF11F83A
:1022F000012B28BF20F8023B48BF00F8012B704794
:102300004FF000020429C0F0128010F0030C00F01E
:102310001B80CCF1040CBCF1020F18BF00F8012B9C
:10232000A8BF20F8022BA1EB0C0100F00DB85FEA6A
:10233000C17C24BF00F8012B00F8012B48BF00F836
:10234000012B70474FF0000200B5134694469646A5
:10235000203922BFA0E80C50A0E80C50B1F12001B8
:10236000BFF4F7AF090728BFA0E80C5048BF0CC066
:102370005DF804EB890028BF40F8042B08BF7047C4
:1023800048BF20F8022B11F0804F18BF00F8012B36
:10239000704700000000000030B44FF0013C50F8DE
:1023A000042BCCFA52F451F8043BD51A20D1FCB9D5
:1023B00050F8042BCCFA52F451F8043BD51A17D13B
:1023C000B4B950F8042BCCFA52F451F8043BD51AA6
:1023D0000ED16CB950F8042BCCFA52F451F8043BEE
:1023E000D51A05D1002CDAD030BC4FF00000704770
:1023F00029BAB1FA81F111F01801D1F1200084401D
:10240000F2D1CA40CB4012F0FF0213F0FF0330BC00
:10241000D01A7047704770477047000000487047F7
:10242000B8010024704770477047704738B50446BC
:102430000A4600206946AFF30080002808BF38BD77
:1024400002460099204600F015FB012038BD01200E
:1024500000F0AABDF8B5AFF30080054600200C4699
:10246000102000BF0646A819A0420DD93246694681
:102470000020AFF30080070008BF00F095FD009832
:10248000A04218BF0546C419FFF7C8FF05600746FC
:10249000F01D20F007004619284600F00AF8B44263
:1024A00008BFF8BDA21B31463868BDE8F84000F00F
:1024B000E1BA00210160C0E90110704710207047A7
:1024C00070B50446051FFFF7A9FF0068002C14BF74
:1024D000446870BD002C18BFAC423CBF2046646805
:1024E000F8D301680A18AA4218BF456003D12A68C8
:1024F00005461144016028684119A1421CBF6C6067
:1025000070BD6168696021680844286070BD10B5BD
:1025100000F0ACFA006810BD10B5044600F0A6FA51
:10252000046010BD2DE9F0470D46994692460446D9
:1025300000F124080168880604D5E06921F0100143
:10254000216000E00120A84201DD471B00E00027D8
:10255000A1697A1902EB0900081AA0612078C00667
:1025600002D42046FFF7F8FC002608E0D4E9012158
:102570001AF806009047206A401C761C20624E45DF
:10258000F4DB2078C0060AD52046FFF7E5FC06E01C
:10259000D4E9012130209047206A401C2062381E77
:1025A000A7F10107F4DC07E0D4E9012118F80500E0
:1025B0009047206A401C2062281EA5F10105F3DC2B
:1025C0002046FFF7DFFC2078000602D50220BDE898
:1025D000F0870120FBE72DE9FF4F0C461E464FF028
:1025E000FF378BB0D2E90001DDF860800A908A469F
:1025F000C1F30A5505B93D46002108464FF00000D9
:10260000BAF1000F00F4400005DA00EB80004FF44F
:10261000400101EA50004FEA9059B9F1010F00DD85
:10262000B9460A9850EA4A000ED044F61050A5F276
:10263000FF3545432F14B8F1000F1ED07542291EF7
:102640001EDDC9F100021CE0B8F1010F4FF00000DF
:1026500001D0302103E0F24305E02154401CB04298
:10266000FBDB30460022002121540B99C1F8088081
:10267000C1E900200FB0BDE8F08FBD1B6D1CDEE787
:102680004A4600DA694206A800F094FA06AB93E8DD
:10269000070003AB83E8070050460A990EF010FECE
:1026A0008DE80700A0F500501F3800900398002D1A
:1026B0000ADD42F21F014A460844002303A90390A1
:1026C00068460FF079F809E0A0F500504A461F3837
:1026D000002303A9039068460FF083F88DE80700F4
:1026E0000004000C03D04FF0FF30410800E010461A
:1026F000B8F1000F03D00022009215461EE0751EAF
:1027000005D400F0D1F9303262556D1EF9D5B346CB
:102710000122084302D000227F1C04E020783028E8
:1027200001D100227F1E002A099784D01DE0112DBF
:1027300007DA00F0B9F9303262556D1C50EA010237
:10274000F5D1084302D00098C8B10EE00021681E00
:1027500005E0235C625C63542254401E491C8142A4
:10276000F7DBAB46A81B401E0990002004F80B00C5
:102770000B98099AC0F80880C0E9002B7AE7112667
:102780004FF0000857E72DE9F04F88460446D21D68
:1027900022F0070191B0D1E90001CDE90A010FF063
:1027A00057F902460B98C00F01D02D2007E0206892
:1027B000810701D52B2002E0202101EAC000032A75
:1027C000099001D0072A05DB03464146204600F068
:1027D000B1F90BE12078800601D5E06900E0062020
:1027E000B8F1650F814606D0B8F1660F18D0B8F180
:1027F000670F70D131E00020B9F1110F009001DBBB
:10280000112301E009F101030AAA01A90CA8FFF7AD
:10281000E2FEDDE90C70002609F10105834647E080
:1028200001204B4600904FF000470AAA01A90CA8CE
:10283000FFF7D1FEDDE90DB00C995D46002610B919
:1028400009F101000D18B9EB050003D4C0F1FF3602
:1028500009F10105A5EB09002BE0B9F1010F01DA3F
:102860004FF001090020B9F1110F0090484601DD39
:10287000112300E003460AAA01A90CA8FFF7ABFE4A
:10288000DDE90C704D4600268346207800070AD407
:10289000AB4500DA5D4601A8012D04DD411911F8B0
:1028A000011C302907D04F4502DA17F1040F04DA72
:1028B000012082460FE06D1EEEE7002F02DCED1BCB
:1028C0003E4403E0781CA84200DD7D1CB81B00F1EB
:1028D000010A4FF000472078000703D4AA4501DB26
:1028E0004FF0FF3A0021B7F1004F0DF143088DF88A
:1028F000431024D002202B23002F01DA7F422D2306
:102900000A21021EA0F1010000DC5FB197FBF1FC7F
:1029100097FBF1F201FB1C7C17460CF1300C08F818
:1029200001CDEEE7A8F1010003702188090501D56A
:10293000452100E06521A0F1010800F8011C09987B
:102940000FA9A1EB0807FF1D00B10120411901EB00
:10295000EA70A1693844081A401EA0612078C006B8
:1029600002D42046FFF7F8FA099828B1D4E90121EA
:102970009047206A401C20622078C00622D520465D
:10298000FFF7EAFA1EE0002E04DBB34502DD01A8E2
:10299000805D00E03020D4E901219047206A401C8E
:1029A0002062761CAAF101005FEA000A0AD100F059
:1029B00059F8C0680168405CD4E901219047206A59
:1029C000401C2062281EA5F10105DCDC07E0D4E9EB
:1029D000012118F8010B9047206A401C2062381E24
:1029E000A7F10107F3DC2046FFF7CCFA032011B072
:1029F00041E6000001694A1C02610878704700B591
:102A00008FB0CDE901310021059105497944CDE927
:102A1000031011466846FFF72BFB0FB000BD000006
:102A2000E5FFFFFF0A6802F8010B0A60704710B566
:102A3000436913B1AFF3008001E0FFF7B4FA01205E
:102A400010BD127800F124010A7000224A700122A0
:102A5000EDE711684FF0FF32E9E7000000487047EA
:102A6000B001002400487047D0010024004870479E
:102A7000B0010024034640688C46002818BF8842F5
:102A80003CBF03464068F8D318681844884207D012
:102A90000CF1030020F00700001D411A521A0146F4
:102AA000081D0A60FFF70CBD30B5B0F10A0271F1E4
:102AB00000034FEA900E4EEA817EB0EB0E0061EB10
:102AC00091014FEA101E4EEA017E10EB0E0041EB21
:102AD00011114FEA102E4EEA016E10EB0E0041EB81
:102AE00011214FEA104E4EEA014E10EB0E0041EB61
:102AF0001141401841F100014FEAD00040EA417015
:102B00004FEAD1014FEA810444EA907410EB80054A
:102B100044EB01046D1944EB0404521BA3414FF034
:102B2000000348BF0A3200D530BD401C41F100010E
:102B300030BD00002DE9F0411F4604460326016820
:102B4000072A01F4006004DB08B116A505E016A50C
:102B500003E008B115A500E015A521F010002060E4
:102B6000A069C01EA0610FB1401EA0612046FFF702
:102B7000F3F94FB1D4E9012138469047206A401C4F
:102B80002062C01C206206E0206AFAE7D4E9012135
:102B900015F8010B9047761EF8D22046FFF7F2F9A0
:102BA000BDE8F0814E414E006E616E00494E460018
:102BB000696E66002DE9F047814616468AB03548B1
:102BC00078440DC88DE80D0032487844801C03AC71
:102BD0000DC884E80D0041F69B300844372190FB76
:102BE000F1F290FBF1F5A5F1800501FB12041B3C0D
:102BF00002D56442012000E00020DFF898A0804662
:102C00000027FA44AAF1BE0A0EE0E0070AD03246D5
:102C1000684607EB470101230AEB81010EF0E1FD55
:102C20008DE8070064107F1C002CEED1194F7F4403
:102C3000AE3F19E0E80715D007EB04100DF1180AB4
:102C400090E80E008AE80E00C068F04201D19819A1
:102C500008903246012306A903A80EF0C2FD03AB7B
:102C600083E807006D10641C002DE3D14FF00103D1
:102C700032466946B8F1000F03A802D00EF09CFD61
:102C800001E00EF0AEFDC9E90001C9F808200AB064
:102C9000BDE8F08710FA00002DE9F04705460C4624
:102CA000C86820F4201040F48000C860800602D577
:102CB000084600F020FAE06841F282014FF0FF3947
:102CC0000140022903D0204600F0BEF9B5E000F42F
:102CD0002041B1F5004F0FD1C00306D56168E06A0D
:102CE000884200D80846606006E02069E0626060C3
:102CF00060690DF04DFEA061A0680022EEB20028D0
:102D00000DDAE1688B050AD4C043A06041F490302D
:102D10002260E0606068411C61600670A5E0E068C8
:102D20009046226040F40050E060206968BB606912
:102D30000DF032FE012704F12405A0B1A08910F4A2
:102D4000407F08D0E069FFF74BF8206118B1E068D8
:102D500040F4006016E0E7612561E06820F440700F
:102D600040F480600EE0E069FFF73AF80028206147
:102D7000F1D0E06840F4006010F4407FE06002D1E0
:102D800040F48070E06020696060E06825696FF061
:102D9000010AC1051FD56168E06A884200D808466B
:102DA000411B04D02246284600F058F9F0BBE068E9
:102DB000010203D5E562C4E9015854E0691CE162EF
:102DC0006160E16940F48030491EC4E90210304678
:102DD0002E70BDE8F087010202D500F480320AE0CF
:102DE0006068411C61600670E0680A2E40F4803023
:102DF000E06006D00022E16A6068814203D90B4698
:102E000002E00122F7E70346A7895B1B7F0503D495
:102E1000E7699F4200DDE2B1814200D80146E562E8
:102E20000F1AC4E90158002B09DD00E005E0224635
:102E30001946284600F012F908B14846C9E747B1DB
:102E4000A069E5626560C01BA061E06840F0100009
:102E5000E060E068000208D56168A069E562491B8E
:102E600008446560A0615046B3E73046B1E7000012
:102E700010B542485421FFF765FA41485421FFF745
:102E800061FA40485421FFF75DFA3F493B483C4A0C
:102E90003F4B08603D490A603A491960531C03657D
:102EA000481C1065012008653B48344A39A1784424
:102EB00000F042F920B9384878440A3800F0E8F9BF
:102EC00037482F4A35A1784400F036F920B9344804
:102ED00078440A3800F0DCF932482A4A2FA17844B5
:102EE00000F02AF920B92F4878440A3800F0D0F9C8
:102EF00040232248DC000021224600F082F820B165
:102F000025487844543800F0C3F91D482246402330
:102F1000002100F076F820B121487844543800F0C0
:102F2000B7F9184822461023002100F06AF800285B
:102F300006D01C487844BDE81040563800F0A8B9C7
:102F400010BD104870B5006D20F001040B4800F072
:102F50006BF90B4800F068F90A4800F065F909E0E0
:102F6000206D20F00105204600F05EF92046FFF7B5
:102F7000A7FA2C46002CF3D170BD0000B400002449
:102F8000080100245C010024080000240C00002437
:102F900010000024720000001412010077000000ED
:102FA00003120100DC11010010B500F079F9BDE851
:102FB000104000F068B970477546FFF74FFDAE4608
:102FC00005006946534620F00700854618B020B535
:102FD000FDF7DEF9BDE820404FF000064FF0000796
:102FE0004FF000084FF0000BAC46ACE8C009ACE86D
:102FF000C009ACE8C009ACE8C00921F007018D4662
:10300000704770B5C468A50713D0650211D4B2F536
:10301000807F09D0B2F5007F06D0B2F5806F08D16D
:10302000012300F1240106E05D1E6FF07F46B542EA
:1030300001D3012070BD0161C361416024F470615E
:103040001143C160002070BDC16821F4001141F03E
:103050008001C16000218160016070472DE9F04767
:10306000814614460E464FF0FF383248D5685769FE
:10307000054209D03846A1690DF0CAFC002811DBD1
:103080002C48C0430540E5602B4632464946384649
:103090000DF0C2FCA16920F00042B21A11440028D0
:1030A000A16103D02046FFF7CFFF4046BDE8F0877F
:1030B00070B504460569C06A6168884200D8084650
:1030C000E16821F42011E160C90312D5A84208D0BB
:1030D0002246411B2846FFF7C1FF10B14FF0FF30D9
:1030E00070BD0020E562C4E90150E06820F4803042
:1030F000E060002070BD10B50446C06820F02000DC
:10310000E060A16AA06988420DD02046FFF7D0FF99
:10311000E06820F4405040F01000E060A06AA06138
:103120002069E062606044F24001E0688843E0604A
:1031300010BD0000100002002DE9F0410C461646BB
:10314000070047D0104600F06FF82078611C612816
:103150000AD0722802D077283CD102E00125002451
:1031600005E00225042402E0082448F2020511F8D3
:10317000010B2B2806D0622809D011F8010C742805
:103180000AD00BE045F0030544F00204EFE745F0F8
:10319000040544F00104EAE744F0100438462146EF
:1031A0000DF002FC411C15D00021316171604FF41B
:1031B0000071F560F1617061200704D5304602228C
:1031C000002100F09BF8306D40F001003065304682
:1031D000BDE8F0810020FBE72DE9F0410D460646F1
:1031E000104C206DC10704D0410804D020F0010428
:1031F000F7E722460EE05420FEF7F2FD07000ED05E
:10320000206D47F001010843542120653846FFF73F
:1032100099F83A4629463046BDE8F0418CE700204F
:10322000D6E70000B40000242DE9F04704464FF033
:1032300000094FF0FF37C568D4E90486A80707D016
:103240002046FFF735FF30460DF096FB002802DAE6
:103250003846BDE8F087280502D54046FFF730F92B
:103260004C212046FFF76EF8206D20F0010020650C
:103270004846EEE710B50446AFF300802046BDE8AF
:103280001040FDF770B8002801D000F031B8704749
:1032900010B500F0C9F8BDE81040FFF7F4BF00001A
:1032A00010B5012805D0002103A000F0A3F80120EB
:1032B00010BD09A1F8E7000053494752544D454D50
:1032C0003A204F7574206F662068656170206D65C7
:1032D0006D6F7279000000003A2048656170206DC2
:1032E000656D6F727920636F7272757074656400BA
:1032F00001491820ABBEFEE7260002002DE9F0418F
:10330000044616460D464769007B80072ED0384696
:103310000DF042FB50BB3EB3012E02D0022E25D150
:1033200004E0204600F0A1F805441DE038460DF009
:103330002FFBE168002841F01001E16005DA20462A
:10334000FFF782FE0120BDE8F081C9030BD562685A
:10335000E16A914200D81146A26911442269891A92
:10336000814200DD08460544002D01DA0220EAE72B
:10337000E16A6068E268814206D29103E06203D5A7
:1033800022F4003141F01002A6690027AE4213DC9E
:10339000E16A814201D90B4600E0034603EB060CCB
:1033A0002369ACEB030CAC4506DD814201D98C46A8
:1033B00000E084469C4505D1A760276042F02000CC
:1033C000A5620DE0AD1BE669AE1B8142A66000D987
:1033D0000846C01A281A20605819606022F02000A0
:1033E00003490840E060002084F84870ABE7000023
:1033F000BFCFD7FF70B505460C460A2000E06D1C14
:1034000000F02CF835B128780028F8D102E0641CCF
:1034100000F024F814B120780028F8D1BDE87040FD
:103420000A2000F01BB8000010B5014602A0FFF70B
:10343000E1FF012010BD000053494752545245445A
:103440003A2052656469726563743A2063616E273D
:1034500074206F70656E3A200000000008B5694660
:103460008DF800000320ABBE08BD10B50146C26850
:10347000900703D0900607D5886A0AE0FFF7F6FAAE
:1034800001210160881E10BD8B69486818440B69D2
:10349000C01A91F848301BB191F84910401A10BD7C
:1034A0001103FCD50028FADD401E10BD000000000D
:1034B000B0B50446006842F2001140F48070C4F2D6
:1034C0000201884204D142F20830C4F2020003E053
:1034D00046F20830C5F60200006810F4403F10D0F4
:1034E00005F03EF961680546B1F5803F05D0B1F5BC
:1034F000403F21D0B1F5003F1FD1080CB5FBF0F5DE
:103500001BE04FF4002004F0A7F961680546A1F51F
:1035100080224FEAB2420A2A0FD8DFE802F00606FC
:1035200006060606494B4D4F51006FF0010000EAB8
:103530005140B5FBF0F500E0AD0803F061FC41F24D
:10354000030188420DD8206842F60151C0F23111C2
:103550008D4281682CBF41F4807121F480718160BB
:10356000B0BD4BF62140C0F2BE00854205D82068B0
:10357000816821F440718160B0BD47F64100C0F21E
:103580007D10854203D820680122816808E0206808
:103590004FF28101C0F2FA218D42816804D80222E3
:1035A00062F309218160B0BD41F440718160B0BD1A
:1035B0002D09C2E76D09C0E7AD09BEE7ED09BCE71B
:1035C0002D0ABAE70000000010B5846B616D11F0A0
:1035D000500F616D05D0C9060ED4E16CC96C8847E7
:1035E00010BD41F40070606520680168090707D4C8
:1035F000C068800716D10AE0204601F0F9FD10BD31
:103600000AF0A2F970B12068C06880040AD4606D25
:1036100020F480706065606DC00403D4606D40F07C
:1036200001006065204601F0DBFD10BD00000000D8
:1036300080B5806B416D41F040014165816D41F085
:103640000401816501F0D4FD80BD00000000000090
:1036500080B5806B01F0C8FD80BD00000000000057
:10366000B0B5044600680AF057F9054620680AF02C
:1036700057F901464FF0000085BB002908BFB0BDD7
:103680002068816801F00D0101291CD10AF004F9BC
:1036900020680321016003F0BBFB21688968C9072A
:1036A00001D10020B0BD054604E000BF206880685D
:1036B000C00712D003F0ACFB401B0328F6D32068F0
:1036C0008068C007F2D0606D40F010006065A06DAA
:1036D00040F00100A0650120B0BD0020B0BD000099
:1036E00070B5044600680AF01BF900281CBF0020D2
:1036F00070BD20683F22C8F200028168114209D0E3
:10370000606D40F010006065A06D40F00100A065A4
:10371000012070BD0AF0D4F803F07AFB42F20005F4
:1037200046F20031C4F20205226805F5807605F5FF
:103730004073C5F60201B24208BF1946AA420546C7
:1037400008BF194608460AF0D7F821680A46B14270
:1037500004BF42F20002C4F20202002818BF8A42EB
:1037600003D121680868C00708D0002070BD00BFE1
:1037700021680868C0074FF0000010D108460AF021
:10378000CFF810B920680AF09BF803F041FB401B0A
:103790000328EDD320680068C007E9D1B0E770BD09
:1037A00080B50B46C0E900120021C0F8081480F86B
:1037B000761440F6B832C0F87814C0F87C14C0F81B
:1037C000801400F10801C0F884244FF48062184688
:1037D00006F0FAFC80BD00000129B8BF704700F276
:1037E0000C4C00BFD0F80834D0F87C2403440139D5
:1037F0001B7A0CF80230D0F80824D0F87C3402F19F
:10380000010203F10103C0F87C346FF39F22C0F87A
:103810000824E7D17047000010B5044690F87604FC
:1038200058B104F20C43D4F8782408461946FEF740
:10383000F0FC002084F8760410BD012010BD0000CB
:1038400080B591F90420B2F1FF3F01DD062201E0CD
:103850008A7806320068FF2306F0F6FC002080BD5F
:1038600070B5044690F8760408B1002070BD606819
:1038700000684068C0F58065D4F808042E1A48BF77
:1038800006F58066D4F87C046EB330B90620C4F81F
:10389000780403F0BDFAC4F88004D4F87804D4F8AE
:1038A0007C14411A2046B142C8BF3146FFF794FF4D
:1038B000D4F87C040628D8DB94F91014B1F1FF3F4A
:1038C00004DC94F80E140631C4F87814D4F8781493
:1038D00088424FF0000018BF70BD012184F87614B3
:1038E000C4F87C0470BD0028BFD003F091FAD4F86E
:1038F0008014D4F88424401A90424FF00000F1D98B
:10390000C4F87C040220C4F8085470BD0000000014
:10391000FEE700000000000080B5006801F00CFA2E
:1039200080F0010080BD0000B0B50446FFF7F4FF51
:10393000054603F06DFA61798D4207D1D4E9021290
:10394000401A904298BF25792846B0BD6571257907
:10395000A0602846B0BD0000B0B505461446016021
:1039600040F20110A88003F053FAC5E90204B0BD8B
:1039700010B50446FFF7D8FF012801D1217909B11C
:10398000002100E001212071084610BD0000000068
:1039900080B5C06810B101F0CFF980BD002080BDB6
:1039A00080B5806810B101F0C7F980BD002080BDEE
:1039B0002DE9F04188B090F8A832012190F8B022AA
:1039C000002B08BF4FF0FF31032A0AD0022A26D16C
:1039D00000EE101A4FF0000C4FF0000EB8EEC00BC6
:1039E0000BE000EE101A4FF0000E4FF0010CB8EE95
:1039F000C00B90EDA21B21EE000B90EDA41B9FEDE0
:103A00000A2B53EC102B21EE021B00F5267898E8C8
:103A1000E00154EC111B8DE8F25100F015F908B0EB
:103A2000BDE8F08100BF00BF9A9999999999B93F73
:103A300080B5006A0BF060FB80BD00000000000054
:103A400010B50446002084F8B202204600F0A8FA1F
:103A5000206A0BF05DFB10BD002101717047000072
:103A600010B50446006A0BF05FFB012084F8B20237
:103A700010BD00000000000001210171704700002E
:103A80002DE9F04F89B00DF1480B1D46164604464E
:103A9000189FDDF854809BE8000E00F081FA04F5D1
:103AA0002470F9B2C4E9A26580E8000EC4F89C82D3
:103AB0001698C4F8A0021798C4F8A4021998C4E98B
:103AC000AA70002000294FF0FF3584F8B402204688
:103AD00008BF01250DD0FFF75BFF70B194EDA40B7B
:103AE0009FED151B6D42022620EE010B5CEC10EBE6
:103AF00006E0FFF755FF0028F0D1D4E9A4EC012639
:103B000000EE105AB8EEC00BD4E9A675D4E9A801AE
:103B100053EC102B84F8B062CDE900ECCDE90275CE
:103B2000CDE904010020CDE90600204600F08CF824
:103B300009B0BDE8F08F00BF9A9999999999B93F5A
:103B400010B50446012084F8B3020020216040F241
:103B50000111A080C4E9022321820299216200217F
:103B600084ED060BC4E90A00C4E90C00C4E90E00A8
:103B7000C3F6F071C4E91001C4E91201C4E99E0062
:103B8000C4F8800284F884024FF44070A4F8B002B4
:103B90002046FFF765FF4FF48070A4F8B30210BD14
:103BA00090F8B2027047000090F8B0020438B0FA02
:103BB00080F040097047000090F8B00210F0FB0060
:103BC00018BF01207047000090F884020138B0FA55
:103BD00080F040097047000090F88412012903D159
:103BE000D0F88002C00F704700207047000000002E
:103BF000014690F8840201284FF0000018BF70477A
:103C0000D1F880120029C8BF0120704700000000D1
:103C100010B52DED028B044690ED9E8BA0300AF07E
:103C2000BFFDB4EE408BF1EE10FA03DA0020BDECDC
:103C3000028B10BD94F87000002818BF0120BDEC65
:103C4000028B10BD000000002DE9F04389B0169EE4
:103C50000DF1400EF7B2012197F0020F159F08BF3A
:103C600003219EE80051DDE91395179C80F8B112FD
:103C70008DE80051CDE90395CDE90576079400F074
:103C800003F809B0BDE8F0832DE9F04F81B02DEDC8
:103C9000048B1D4616460446FFF782FF002800F0FD
:103CA000DE80012084F8B3022046149FFFF7C0FE97
:103CB000B0EE408BFFB2022F11D0012F00D007BB16
:103CC00045EC106BB5EE400BF1EE10FA11DCB5EEE1
:103CD000400BF1EE10FA14DA4FF0FF3A13E02046F1
:103CE000FFF7A6FE45EC116BB4EE410BF1EE10FAB6
:103CF00002DA4FF0010A06E0B4EE410BF1EE10FAE1
:103D0000EADC4FF0000A94F8B402DDF83890DDE9FF
:103D10001082DDE9123C10B394F8B102032821D1DE
:103D20001AF101001BD1C4E91E65C4F880900F98F8
:103D3000C4E9210804F18C0097F0020F80E80C1010
:103D4000149884F898004FF0020084F8B10206D16C
:103D500045EC106B94ED0A1B30EE419B02E0012014
:103D600084F8B10294F8B10201282BD14FF0000081
:103D700084F8B10247B1012F20D0B0EE489B022F4A
:103D800020D145EC196B1DE045EC106BBAEE041B1D
:103D90000F98B2EE042BB5EE400BF1EE10FA32FEA6
:103DA000010B40EC119B20EE010B20EE010B42ECCD
:103DB000118B80EE010B30EE089B03E045EC106B9D
:103DC00038EE009B94F8840201280AD194ED9E0BF2
:103DD00004F1A00017460AF0C7FCB0EE402B3A46AB
:103DE00001E09FED212B0F9F04F1A00047EC149BF5
:103DF00042EC158BB0EE480B9346B0EE491B9FED9D
:103E00001A3B0AF085FC94F87002A0B1C4E914656D
:103E1000C4E91697C4E9188B1298A06615981399EF
:103E2000E1661499C4E91C100020C4E99E00012039
:103E300084F884020DE0204600F0B2F8206A90ED8C
:103E4000060AB8EEC00B28EE000BBDEEC00B80EDED
:103E5000050AC4F880A20020607184F8B302BDECAA
:103E6000048B01B0BDE8F08F0000000000000000EE
:103E70002DE9F04F81B014460546DDE90A98DDE9E9
:103E80000EBADDE90C76FFF7DBFD46EC107B4AEC61
:103E900011BB284620EE010B01EE104A85ED0C0BFC
:103EA00048EC109BB8EEC11B80EE010B85ED0E0BAC
:103EB000FFF7D6FD284600F063F801B0BDE8F08FAB
:103EC0002DE9F04F81B0DDE91061320A044642EA83
:103ED0000165FFF7B5FDF0B2022805D0012807D033
:103EE00050B90020207407E0A06828B1012102E049
:103EF000A06808B100218171E8B2DDF84880DDE9F1
:103F00000AA9DDE90C7BDDE914EC179E169902285D
:103F1000DDE9183505D0012809D060B900206074AA
:103F200009E0E06800281CBF0122827103E0E0681C
:103F300008B10022827149EC10AB4BEC117B03EE0F
:103F4000108A04F1280045EC123B80EE010BB8EE1C
:103F5000C33B46EC111B4CEC14EB20EE030B21EEA3
:103F6000021B84EE032B80EC060B2046FFF778FD46
:103F7000204600F005F801B0BDE8F08F0000000019
:103F800080B590ED0C0B90ED101B002121EE000B85
:103F900090ED061B006A80EE010B0BF0EDF880BD82
:103FA000B0B504460120002584F8B30294F8B002AD
:103FB00084F8B1520438B0FA80F04009C4E99E5543
:103FC000800084F8B002204684F88452FFF7D8FFBE
:103FD00084F8B352B0BD00002DE9F0412DED048B03
:103FE00088B0044690F8B202002800F0508194F89E
:103FF000B302002840F04B812046B0EE408BFFF723
:1040000007FEC0B194F8B102022814D104F1800E69
:10401000012084F8B102D4F894609EE82350D4E9DA
:104020001E23D4E926788DE8235005A880E8C00136
:104030002046FFF729FE94F88402012840F02781EA
:104040002046FFF7E5FDF0B194F8B002032813D144
:10405000206800F04DFE206A002100250BF0ECF8EE
:10406000042084F8B002012084F8B402204684F8C9
:104070008452FFF785FF0AE12079002877D0607924
:1040800008B9012060716079012821D104F1A005EF
:1040900028460AF085FB28460AF04AFB2068B0EE65
:1040A000408B00F009FE38EE401B206A9FED802B0C
:1040B000B0EEC10BB4EE420BF1EE10FA30DAB0EE16
:1040C000480B0BF0BDF80020607184F88402DEE03C
:1040D0002046FFF765FC10B194F8A80238B12046DD
:1040E000FFF756FC88B194F8A80201280DD194F886
:1040F000B002012825D1002084F88402022084F82F
:10410000B0022046FFF754FCC1E094F8B002022848
:1041100017D1032084F8B0022046FFF749FCB6E02F
:1041200094ED060B94ED0C2B4FF0FF31B5EE401BD8
:1041300082EE000BF1EE10FAC8BF01210BF01CF863
:10414000A5E094ED9E0B94F8700004F1A00530EE0C
:10415000080B84ED9E0B88B128460AF0E9FA204648
:10416000B0EE409BFFF764FC39EE409B4CE0002032
:1041700084F884022046FFF703FF88E028460AF00F
:1041800047FB94ED9E1BB4EE401BF1EE10FA07DAEC
:10419000B0EE410B28460AF0E7FA20EE089B33E028
:1041A000284684ED9E0B0AF0DFFA20EE089BB5EE60
:1041B000409BF1EE10FA0DDB206AB7EE002B90ED7C
:1041C000060AB8EEC00B29EE001BB4EE421BF1EE5E
:1041D00010FA15DDB5EE409BF1EE10FA14DA206A04
:1041E000BFEE002B90ED060AB8EEC00B29EE001BC7
:1041F000B4EE421BF1EE10FA06DB9FED291B01E045
:104200009FED251B81EE009BB5EE409BF1EE10FA71
:104210000EDD2046FFF7C4FB50B12046FFF7CCFC73
:1042200030B9207C012803D12046FFF7B9FE2EE0EB
:10423000B5EE409BF1EE10FA0EDA2046FFF7A8FB30
:1042400050B12046FFF7B8FC30B9607C012803D19B
:104250002046FFF7A5FE1AE089EE080B206A94EDD0
:104260000C1B94ED123BB0EEC00B23EE011B94ED42
:104270000E2B9FED0D3B20EE020B01EE030B94ED98
:10428000061B80EE011BB0EE490B0AF0C5FF08B01B
:10429000BDEC048BBDE8F081295C8FC2F528F03FAE
:1042A000295C8FC2F528F0BF39B4C876BE9FF63FAF
:1042B0009A9999999999B93F0022C0E9001280ED25
:1042C000020B70470000000080B540F21C50C2F2A3
:1042D000004001F0E5F980BD80B540F29450C2F293
:1042E000004001F0DDF980BDB7210268C4F202018F
:1042F0008A424FF0010113DD40F25743C4F202033A
:104300009A421EDC40F22743C4F202039A4233DC95
:10431000B823C4F202039A424AD040F2104343E069
:104320005723C4F202039A421ADD8723C4F2020320
:104330009A422ADC5823C4F202039A4238D07023EE
:1043400032E040F28743C4F202039A4224DC40F296
:104350005843C4F202039A422AD040F2704323E049
:104360001023C4F202039A4222D02823C4F202038B
:104370009A421DD0402317E040F22843C4F20203C2
:104380009A4215D040F240430EE08823C4F2020363
:104390009A420DD0A02307E040F28843C4F2020302
:1043A0009A4205D040F2A043C4F202039A421FD1C0
:1043B0000029016817D06FF00F024AF6AB2352FABA
:1043C00081FCCAF6AA23ACFB03320EA3BCF15F0F3B
:1043D000C2F302129A5C40F2FF3321EA0301C26584
:1043E00088BF043101E021F0FF0181650846704774
:1043F0004FF64831CBF6FD711144B1FA81F149090C
:10440000D6E700BF000610160006101600000000D8
:1044100010B545F243420168C5F6020291424FF0E1
:1044200001020EDD45F26B43C5F60203994217DC2B
:1044300045F24443C5F60203994225D045F258435C
:1044400016E045F20843C5F6020399421CD045F236
:104450001C43C5F60203994216D045F2304307E0EB
:1044600045F26C43C5F6020399420DD045F28043F4
:10447000C5F60203994207D045F29442C5F60202FE
:104480008A1AB2FA82F2520903788AB14CF6CD4206
:10449000A3F10801CCF6CC42A1FB021245F29441F3
:1044A000C5F60201120901F55B7301F57B711FE08E
:1044B000A3F110024AF6AB23CAF6AA234FF0080E66
:1044C000A2FB032340F20F42C4F202024FEA131C84
:1044D000914202F1AA04624688BF0EEB131240F625
:1044E0000003A142C4F2020303F1800128BF624627
:1044F00003EB820302F01F0203660123416603FA05
:1045000002F1816610BD000080B50179A1F1010EB4
:10451000BEF1070F88BF80BD45F243420368C5F670
:1045200002024FF0010C93420EDD45F26B42C5F6DC
:104530000202934217DC45F24442C5F6020293425E
:1045400026D045F2584216E045F20842C5F602026E
:1045500093421DD045F21C42C5F60202934217D089
:1045600045F2304207E045F26C42C5F60202934242
:104570000ED045F28042C5F60202934208D04AF6B8
:104580006C32CAF2FD721A44B2FA82F24FEA521C3D
:1045900040F60012BCF1000FC4F2020245F6001111
:1045A00002F14003C5F602011CBF45F60012C5F634
:1045B000020218BF01F1400302EB8E01C166012126
:1045C000036701FA0EF1416780BD000000000000A2
:1045D000816959B1B1F5005F816A0FD103290BD808
:1045E000DFE801F00211021501207047816A0229FB
:1045F00009D001290BD031B10020704703293CBFFD
:1046000001207047F8D1C06AC0F300607047C06AEB
:10461000A0F1C070B0FA80F04009704700000000BF
:1046200070B540F26F44D0F800E0C4F20204D0F854
:1046300058C0A64519DC9F25C4F20205AE4531DC01
:104640005725C4F20205AE4556DC1025C4F202051A
:10465000AE4500F092802825C4F20205AE4500F078
:104660008C804025C4F2020584E045F22F45C5F652
:104670000205AE452BDC40F2B745C4F20205AE455B
:1046800048DC40F27045C4F20205AE4575D040F2F8
:104690008845C4F20205AE456FD040F2A045C4F291
:1046A000020567E040F22745C4F20205AE4540DC52
:1046B000A025C4F20205AE455FD0B825C4F20205BC
:1046C000AE455AD040F21045C4F2020552E045F220
:1046D0006B45C5F60205AE453CDC45F23045C5F6F6
:1046E0000205AE4549D045F24445C5F60205AE4542
:1046F00043D045F258453BE05825C4F20205AE458B
:104700003BD07025C4F20205AE4536D08825C4F2F0
:1047100002052FE040F2B845C4F20205AE452CD0A8
:1047200045F20845C5F60205AE4526D045F21C45C2
:104730001EE040F22845C4F20205AE451DD040F20D
:104740004045C4F20205AE4517D040F25845C4F2C8
:1047500002050FE045F26C45C5F60205AE450CD0EA
:1047600045F29445C5F60205AE4506D045F28045B2
:10477000C5F60205AE4540F0C980456EC66E002EF6
:10478000866E6E601CBFD0E91C566E60A64515DCB7
:104790009F24C4F20204A6452BDC5724C4F2020471
:1047A000A6454EDC1024C4F20204A64576D0282487
:1047B000C4F20204A64571D040246BE045F22F44B8
:1047C000C5F60204A64527DC40F2B744C4F2020451
:1047D000A64542DC40F27044C4F20204A6455DD016
:1047E00040F28844C4F20204A64557D040F2A044E7
:1047F00050E040F22744C4F20204A6453CDCA02469
:10480000C4F20204A64549D0B824C4F20204A64565
:1048100044D040F210443DE045F26B44C5F602043A
:10482000A6454FDC45F23044C5F60204A6455BD0F0
:1048300045F24444C5F60204A64555D045F2584415
:104840004EE05824C4F20204A64527D07024C4F2D6
:104850000204A64522D088241CE040F2B844C4F2E9
:104860000204A6451AD045F20844C5F60204A6453E
:104870003AD045F21C4433E040F22844C4F202042A
:10488000A6450BD040F24044C4F20204A64505D030
:1048900040F25844C4F20204A64537D104683F25CB
:1048A0008668C06D00F01F00402E05FA00F0CCF8BD
:1048B0000800206820F480202060636021D0A1607F
:1048C000E26070BD45F26C44C5F60204A6450BD00B
:1048D00045F28044C5F60204A64505D045F294444D
:1048E000C5F60204A64511D10468C66D806806F0BD
:1048F0001F060125402805FA06F6CCF8046063601F
:1049000002D1A260E16070BDA160E26070BD0000F4
:10491000704700000000000040F224000021C2F2B5
:10492000004001707047000040F224000121C2F2F3
:10493000004001707047000010B540F229210122AB
:10494000C2F20041044640F21C000A7040F23021DD
:10495000C2F20041C2F200400A6040F22C21C2F2D1
:1049600000410068086002F053FA40F23421C2F2BC
:104970000041086040F238214FF47A70C2F20041E1
:104980006043086010BD000040F21C00C2F200400D
:10499000006870470000000080B502200CF038FA73
:1049A000FCF750FA0020FCF7C4FAFCF767F943F271
:1049B0009010C0F60100FBF7FDFC4FF42070FCF7EF
:1049C0007FFA40F21C00C2F20040006800F018F8C4
:1049D00040F2E0600021C2F2004005F05DF980BDC8
:1049E00080B5024640F2182044F2C021C2F20040D5
:1049F000C0F60101FDF79CFA80BD00000000000038
:104A000040F2E06120EAE070C2F2004140F21C0294
:104A10006428C2F20042A8BF642009681060CA6A14
:104A2000504348F21F52C5F2EB12A0FB020250099C
:104A3000486370470000000040F22001C2F20041CC
:104A40000A68824208BF704720EAE0706428A8BF65
:104A5000642008607047000040F22801C2F2004163
:104A6000086070470000000080B5024640F6F8304C
:104A700044F2C021C2F20040C0F60101FDF758FA2D
:104A800080BD00000000000070B500200021FBF791
:104A900011FD40F6F830C2F20040FCF7E5F80020C6
:104AA0000221FBF707FD40F21820C2F20040FCF79C
:104AB000DBF802F0ADF940F229250446C2F20045C8
:104AC0002978A9B340F6F036C2F200463068201AC1
:104AD0000B2817D340F2302140F22C22C2F20041C1
:104AE000C2F200420868136818441060431E632B2A
:104AF00005D301226328C8BF4FF0FF320A60FFF7D9
:104B00007FFF346040F2342040F23821C2F200408E
:104B1000C2F2004100680968201A884208D940F2B0
:104B20001C010020C2F2004128700868FFF768FFEE
:104B300040F2240040F6F435C2F20040C2F20045D3
:104B4000007888B140F228012868C2F20041001BB9
:104B50000A6810440860002808DD40F21C00C2F218
:104B600000400068FFF74CFF2C6070BD40F2E06031
:104B700040F22001C2F20040C2F200410068096820
:104B8000C26A514348F21F52C5F2EB12A1FB021256
:104B9000510941632C6070BD80B584B000680093FA
:104BA00092B201928AB2A12102234FF0FF0CCDF8FC
:104BB00008C002F0D5F904B080BD0000000000007C
:104BC0002DE9F04784B00C46C91780469A4604EB9D
:104BD000D161174621F01F01611A14D0C1F12005DF
:104BE000D8F80000A9B20191FF210291A2B2A02140
:104BF0000223CDF800A002F077FA052002F00CF8AD
:104C0000BD421ED002E00025BD421AD04FF0FF0980
:104C10007E1B2919202E0AEB0502A8BF2026D8F8F2
:104C200000000092B2B201928AB2A0210223CDF814
:104C3000089002F059FA0520354401F0EDFFBD421D
:104C4000E6D104B0BDE8F087B0B5002A027118BF04
:104C5000B0BD054604200C46FDF7C2F8286004608C
:104C6000B0BD00000000000080B590F804C0BCF1A9
:104C7000000F18BF80BD0068FFF78EFF80BD0000E9
:104C800080B590F804C0BCF1000F18BF80BD00686B
:104C9000FFF796FF80BD000080B50A460160002145
:104CA000C0E9011180ED040B3C21104604F0D4FD55
:104CB00080BD00000000000090ED020AB8EEC00BBD
:104CC00090ED041B21EE000B704700000000000077
:104CD00081607047000000000168D0E90123096885
:104CE000496A41608A1AD11881607047000000004B
:104CF0000168002209684A62C0E901227047000089
:104D0000EFF3108072B600BFFEE700000000000065
:104D100080B581888279006802F06AF880BD000061
:104D200080B5827981880068013A18BF012202F0BB
:104D30005FF880BD0000000010B58188044600685F
:104D400002F04EF8A179401AB0FA80F0400910BD87
:104D500080B58188006802F043F880BD0000000043
:104D6000F0B581B000230093044690F8500001286C
:104D700001D1022535E0012084F850002046164676
:104D80000F46FEF76DFC05460028606D02D040F02E
:104D9000100022E041F202113246884339460230C7
:104DA0006065206808F05CFE4FF60006C2F2C3564C
:104DB000206808F0A9FD60B10098013000900098CB
:104DC000B042F5D3606D012540F0100020F00200E4
:104DD00003E0606D012161F301006065002084F84B
:104DE0005000284601B0F0BD2DE9F04182B00446E4
:104DF00090F85000012803D1022002B0BDE8F081F4
:104E0000012084F8500000200190009042F2000739
:104E1000C4F202072068B8420BD107F580780D462E
:104E2000404608F08DFD0646206808F089FD3043B5
:104E30000AD0606D40F0200060650120002184F8F8
:104E4000501002B0BDE8F08107F5407246F2000054
:104E50002168C5F602001646414518BF00F54076A8
:104E6000B94241F4807108BF16462A68B368002A27
:104E700023F4404214D042F2001C6B68C4F2020CCE
:104E8000614543EA0201B1601AD1384608F04CFD91
:104E90000746404608F048FD3843A8B10020CDE75A
:104EA00042F20013B260C4F20203994215D13846AF
:104EB00008F03AFD0546404608F036FD28430EE06E
:104EC00008F032FD0028E9D1B06840F61F71884330
:104ED0002968AA680843104308E008F025FD08B1D6
:104EE0000020ABE7B06840F61F718843B060002037
:104EF000A4E70000000000002DE9F04782B0002286
:104F00000192044690F85000012803D1022002B01B
:104F1000BDE8F08720680D46012684F8506008F04F
:104F20000BFD28B1606D40F0200060650120C7E0F6
:104F30002A6892FAA2F0B0FA80F3100308BF930E29
:104F40002068696803F01F0306FA03F3C7693B434F
:104F5000C36108F009FD206808F0EEFC06462068F1
:104F600008F0CEFC304368D120682968AA6808F0B0
:104F70001FFD41F20000C5F60040006800F07040DF
:104F8000B0F1805F06D120686A690E21C06801EA2D
:104F900050030CE02068C1686A69C068C9064FEA1E
:104FA000500002D400F00E0301E000F0080329696C
:104FB0002068042928D1016E2A6801F0F841B1EB7C
:104FC000826F4FEA826103D1026E22F000420266D4
:104FD000426E02F0F8428A4203D1426E22F0004251
:104FE0004266826E02F0F8428A4203D1826E22F05B
:104FF00000428266C26E02F0F8428A421DD1C16E42
:1050000021F00041C16618E002FA03F32A6808F0B3
:1050100013FD687E0138B0FA80F120684A092969D9
:10502000D20708F015FD287E0138B0FA80F120681B
:105030004A092969D20208F0F3FC206808F070FCE4
:1050400008B100203CE020682968EA6808F0C4FC48
:105050000021E868C4F2FF7188422CD128684FF61D
:10506000FF71C0F20F01012390FAA0F20842B2FAD8
:1050700082F208BF820E4FF08060511C00EB82600C
:1050800001F01F0200F0F840934001F01E0602EB11
:1050900042070022CFF62062034302EB075220684A
:1050A00042EA0301AA6841F000710A2E38BF43EAC0
:1050B000075108F07DFC2868B0F1FF3F06DD0020B5
:1050C000002184F8501002B0BDE8F08746F20008D5
:1050D00042F20007C5F60208C4F2020708F540795B
:1050E000216807F5807607F540724846B14208BF4F
:1050F0001046B94208BF104608F0FAFB216842F298
:10510000001241F48071C4F202029142824608D139
:10511000384608F005FC0746304608F001FC3843E5
:1051200002E0404608F0FCFB00287FF4FBAE5FEA9B
:105130000A20296809D40020CCF68430814204D1A9
:10514000206840451DD00020BAE75FEACA1009D4A4
:105150000020CCF25270814204D12068404531D009
:105160000020ADE75FEA4A204FF00000A8D40022FB
:10517000CCF6B8729142A3D12068404527D00020D8
:105180009EE74AF40001484608F042FC40F2140051
:1051900042F66351C2F20040C0F23E5100688009FD
:1051A000A0FB01018809022101EB40000190019858
:1051B00058B1019801380190019800284FF0000083
:1051C000F7D17DE74AF0807103E0002078E74AF4E8
:1051D0008001484608F01CFC002071E70000000038
:1051E0007047000000000000704700000000000051
:1051F0007047000000000000F0B581B004460028B0
:105200004FF00000009019D0606D30B9204600F0DA
:105210000BF90020A06584F85000206808F078FBA6
:1052200010B1206808F044FB206808F081FB38B119
:10523000206808F07DFBE0B1002523E00125E3E0D4
:10524000206808F049FB40F2140042F66351C2F2B4
:105250000040C0F23E5100688009A0FB010101201E
:1052600000EB9110009000980028E1D000980138E0
:10527000F8E7606D012540F010006065A06D40F01A
:105280000100A065206808F057FB616D01F0100176
:105290000843606D03D040F010000125B3E020F416
:1052A000817002306065206808F03AFB58BB2068C6
:1052B00042F2001140F48070C4F2020142F2000692
:1052C0008842C4F2020640F0A280304608F028FB73
:1052D000074606F5807008F023FB384398B906F5B9
:1052E000807006F54072216846F20003C5F602039D
:1052F0008142104618BF03F54070B142616808BF93
:10530000104608F07DFB01F07BFD41F2040188426C
:105310000CD3A068102809D1607D216B227F41EA5F
:10532000403040EA024040F01C0108E0607D216B03
:10533000227F41EA4030A168084340EA0241207FD1
:10534000012806D1206A0022CFF6FE7202EB40400F
:105350000143606A28B100F47870A26A084340EA09
:10536000020120684CF20303CFF6F073C2681A40C2
:105370001143C16008F0E0FA0646206808F0C0FA60
:10538000304331D1217D2068E26A44F20307C368CB
:1053900042EA813123EA07021143C16094F83810D0
:1053A0000129016914D14FF61E020027CFF60042F1
:1053B000CFF6FF771140D4E90F231943636C07EB55
:1053C00002421143A26C1943114341F0010101E073
:1053D00021F0010101610169626B21F0704111430B
:1053E00001612046FEF764F82068E1680129026B3C
:1053F00022F00F0102D1A269013A11430163012198
:10540000606D61F301006065284601B0F0BD46F2B1
:105410000000C5F6020008F083FA00287FF473AF9D
:105420005DE7000000000000F0B587B0002142F207
:105430000012CDE9051104460068C4F2020204918D
:105440009042CDE9021159D042F20001C4F20201AA
:10545000884240F0968040F2142144F2E040C2F2CB
:105460000041C5F602000A68002A02F101020A6042
:105470000BD150F8081C41F0200140F8081C50F8EE
:10548000081C01F02001019101990168002641F0FA
:1054900004010160006802A900F004000190019875
:1054A0000320CDE9020040F600000496C5F6020094
:1054B00001F0C6FB40F21C552820C2F20045C4F2A0
:1054C000020028600920C5E90106EE604FF4806003
:1054D00028614FF4805068614FF48040A8614FF418
:1054E0008070C5E9070628466E6200F0A9FE08B183
:1054F000FFF706FCE564AC6307B0F0BD40F2142191
:1055000044F2E040C2F20041C5F602000A68002AF7
:1055100002F101020A600BD150F8081C41F0200191
:1055200040F8081C50F8081C01F020010191019975
:10553000016840F6000441F0010101600168C5F610
:10554000020401F0010101910199016841F0040197
:105550000160006802AD00F0040001900198802015
:105560000290A4F5006029460326039600270497BD
:1055700001F066FB02A93020C1C12046294601F096
:105580005FFB07B0F0BD00002DE9F04742F20006D6
:105590000446C4F20206036846F2003006F580773E
:1055A00006F54075C5F60200BB42904608BF284686
:1055B000B342894608BF284608F09EF98246206813
:1055C00008F0BAF918B994F85000012802D1022065
:1055D000BDE8F087BAF1090F4FF0010084F85000E0
:1055E00058D800FA0AF040F22121084252D0204651
:1055F000FEF776F830B10546002084F850002846C2
:10560000BDE8F0872068616D40F60172B84221EA7A
:10561000020118BF0646BAF1000F01F580716165FD
:1056200018BF864203D1616D21F480116165616DFF
:1056300043F25167C9044FF0000144BFA16D21F04E
:105640000601C0F600070022A16543F2C951E36CD0
:10565000C0F60001C3E90F1743F23167E16AC0F6F3
:105660000007DF641C23036084F85020426842F086
:105670001002426008F070F92168E06C40314A463F
:10568000434601F08DF80546206808F085F9284664
:10569000BDE8F087002084F850000120BDE8F087C5
:1056A0002DE9F04381B00021009140F2140104463D
:1056B000C2F2004140F26F49A56DC4F202090868C8
:1056C00048F2B511C1F64E312668A0FB01084E45DF
:1056D0002F682A6815DC9F20C4F2020086422BDC6A
:1056E0005720C4F2020086424FDC1020C4F20200B0
:1056F000864278D02820C4F20200864273D040202F
:105700006CE045F22F40C5F60200864227DC40F2ED
:10571000B740C4F20200864243DC40F27040C4F25B
:10572000020086425FD040F28840C4F20200864206
:1057300059D040F2A04051E040F22740C4F20200AC
:1057400086423DDCA020C4F2020086424BD0B82045
:10575000C4F20200864246D040F210403EE045F2DC
:105760006B40C5F60200864274DC45F23040C5F657
:105770000200864200F0818045F24440C5F60200F6
:1057800086427AD045F2584072E05820C4F20200B6
:10579000864228D07020C4F20200864223D088209E
:1057A0001CE040F2B840C4F2020086421BD045F231
:1057B0000840C5F6020086425FD045F21C4057E023
:1057C00040F22840C4F2020086420CD040F2404031
:1057D000C4F20200864206D040F25840C4F20200F1
:1057E000864240F0ED84E06D00F01F01082000FAD1
:1057F00001F23A4200F0148140F20F40C4F202007C
:10580000864213DC6F20C4F20200864200F38E80D1
:105810003F20C4F20200864200F3CF801020C4F281
:105820000200864200F0ED802820E5E04E4500F3BE
:10583000898040F23F40C4F20200864200F3C480F7
:1058400040F21040C4F20200864200F0DA8040F2DA
:105850002840D1E045F26C40C5F6020086420CD0EB
:1058600045F28040C5F60200864206D045F29440DB
:10587000C5F60200864240F0A3842068E16D01F085
:105880001F010368580727D50420884010EA020743
:1058900022D01904686000F18780980600F18C849A
:1058A00040F20F40C4F20200864200F3AB836F2047
:1058B000C4F20200864200F3E6833F20C4F20200F5
:1058C000864200F350841020C4F20200864200F0A9
:1058D0006D84282000F066BC980742D502208840DD
:1058E00010EA02073DD01904686000F10E839806A3
:1058F00000F1988440F20F40C4F20200864200F3A7
:10590000AF836F20C4F20200864200F311843F206F
:10591000C4F20200864200F356841020C4F2020052
:10592000864200F07384282000F06CBC9F20C4F2F3
:105930000200864251DC7020C4F20200864260D030
:10594000882059E040F29F40C4F2020086424BDCBE
:1059500040F27040C4F20200864252D040F28840C9
:105960004AE0180740F12C8408208840104000F0DD
:10597000278440F20F40C4F20200864200F32C83D9
:105980006F20C4F20200864200F34F833F20C4F22E
:105990000200864200F393831020C4F20200864284
:1059A00000F0B1832820A9E3D80300F1B482A16CF0
:1059B000002940F00C8300F003BC4020C4F2020038
:1059C00086421ED0582017E040F24040C4F2020048
:1059D000864216D040F258400EE0A020C4F20200E9
:1059E00086420ED0B82007E040F2B840C4F2020070
:1059F000864206D040F2A040C4F20200864240F047
:105A00008E82206804230068184209D02068036849
:105A100023F004030360AA60606D40F0010060653C
:105A2000012000FA01F23A4270D040F20F40C4F275
:105A30000200864210DC6F20C4F2020086421CDCA9
:105A40003F20C4F20200864232DC1020C4F2020081
:105A5000864251D028204AE04E451ADC40F23F40B1
:105A6000C4F2020086422ADC40F21040C4F2020076
:105A7000864241D040F2284039E09F20C4F2020023
:105A8000864225DC7020C4F20200864234D0882091
:105A90002DE040F29F40C4F2020086421FDC40F23B
:105AA0007040C4F20200864226D040F288401EE0D8
:105AB0004020C4F2020086421ED0582017E040F277
:105AC0004040C4F20200864216D040F258400EE038
:105AD000A020C4F2020086420ED0B82007E040F2B7
